{
  "transactions": [
    {
      "hash": "0xbb45d03914d7ebc45d004fce78dcaee5522447382da38c50d31808bd232ab72f",
      "transactionType": "CALL",
      "contractName": null,
      "contractAddress": "0x9680b34564c1414738fed7070fb512d327653837",
      "function": "deployProxyForTrust(address,uint8,address[],uint64[],string,bytes32)",
      "arguments": [
        "0x04C006650d3aF0ae0b6fB7A2D53101b811262DDe",
        "2",
        "[0x5992Fe461F81C8E0aFFA95b831E50e9b3854BA0E, 0xf315B9006C20913D6D8498BDf657E778d4Ddf2c4]",
        "[0, 0]",
        "\"Alex trust\"",
        "0x0000000000000000000000000000000000000000000000000000000000000000"
      ],
      "transaction": {
        "from": "0x5992fe461f81c8e0affa95b831e50e9b3854ba0e",
        "to": "0x9680b34564c1414738fed7070fb512d327653837",
        "gas": "0x82bfa",
        "value": "0x0",
        "input": "0x413d2bc400000000000000000000000004c006650d3af0ae0b6fb7a2d53101b811262dde000000000000000000000000000000000000000000000000000000000000000200000000000000000000000000000000000000000000000000000000000000c000000000000000000000000000000000000000000000000000000000000001200000000000000000000000000000000000000000000000000000000000000180000000000000000000000000000000000000000000000000000000000000000000000000000000000000000000000000000000000000000000000000000000020000000000000000000000005992fe461f81c8e0affa95b831e50e9b3854ba0e000000000000000000000000f315b9006c20913d6d8498bdf657e778d4ddf2c4000000000000000000000000000000000000000000000000000000000000000200000000000000000000000000000000000000000000000000000000000000000000000000000000000000000000000000000000000000000000000000000000000000000000000000000000000000000000000000000000000000000000000a416c657820747275737400000000000000000000000000000000000000000000",
        "nonce": "0x4d6",
        "chainId": "0xaa36a7"
      },
      "additionalContracts": [
        {
          "transactionType": "CREATE",
          "address": "0xafaf31c55d224b9601653c925227a1b29a46d1a9",
          "initCode": "0x3d602d80600a3d3981f3363d3d373d3d3d363d7304c006650d3af0ae0b6fb7a2d53101b811262dde5af43d82803e903d91602b57fd5bf3"
        }
      ],
      "isFixedGasLimit": false
    }
  ],
  "receipts": [
    {
      "status": "0x1",
      "cumulativeGasUsed": "0xeeeb22",
      "logs": [
        {
          "address": "0xafaf31c55d224b9601653c925227a1b29a46d1a9",
          "topics": [
            "0xc7f505b2f371ae2175ee4913f4499e1f2633a7b5936321eed1cdaeb6115181d2"
          ],
          "data": "0x0000000000000000000000000000000000000000000000000000000000000001",
          "blockHash": "0x0dbb14e19b52a68357fe7a0d0b8704df18d7ca19244f9dfb955a4e4a1f5410c3",
          "blockNumber": "0x643a69",
          "transactionHash": "0xbb45d03914d7ebc45d004fce78dcaee5522447382da38c50d31808bd232ab72f",
          "transactionIndex": "0x3c",
          "logIndex": "0x10b",
          "removed": false
        },
        {
          "address": "0x9680b34564c1414738fed7070fb512d327653837",
          "topics": [
            "0xa083cb0f7491d2d508b6cfa591b5c92b7c5315cbbb6523cb5b9dd94b000297ae"
          ],
          "data": "0x0000000000000000000000005992fe461f81c8e0affa95b831e50e9b3854ba0e00000000000000000000000004c006650d3af0ae0b6fb7a2d53101b811262dde000000000000000000000000afaf31c55d224b9601653c925227a1b29a46d1a90000000000000000000000000000000000000000000000000000000000000080000000000000000000000000000000000000000000000000000000000000000a416c657820747275737400000000000000000000000000000000000000000000",
          "blockHash": "0x0dbb14e19b52a68357fe7a0d0b8704df18d7ca19244f9dfb955a4e4a1f5410c3",
          "blockNumber": "0x643a69",
          "transactionHash": "0xbb45d03914d7ebc45d004fce78dcaee5522447382da38c50d31808bd232ab72f",
          "transactionIndex": "0x3c",
          "logIndex": "0x10c",
          "removed": false
        }
      ],
      "logsBloom": "0x00000000000000000000000000000000000000000000000000000000000000000000000000000000000000000000000000000000000000000000000000000000000000000000000000000000000000000000000008000000000000000000000000000000000000000000000000200020000000000000000000000000000000010000004000000000000800000000000000000400000080000000000000000020000000000000000000000000000000000000100000000000008000000000000000000000000000000000000000000000000000000004000000000000000000000000000000000000000000000000000000000000000000000000000000000000",
      "type": "0x2",
      "transactionHash": "0xbb45d03914d7ebc45d004fce78dcaee5522447382da38c50d31808bd232ab72f",
      "transactionIndex": "0x3c",
      "blockHash": "0x0dbb14e19b52a68357fe7a0d0b8704df18d7ca19244f9dfb955a4e4a1f5410c3",
      "blockNumber": "0x643a69",
      "gasUsed": "0x5966e",
      "effectiveGasPrice": "0x150ee9096",
      "from": "0x5992fe461f81c8e0affa95b831e50e9b3854ba0e",
      "to": "0x9680b34564c1414738fed7070fb512d327653837",
      "contractAddress": null
    }
  ],
  "libraries": [],
  "pending": [],
  "returns": {},
  "timestamp": 1724589651,
  "chain": 11155111,
  "commit": "1291406"
}