{
  "transactions": [
    {
      "hash": "0xeeec85107bf2c1f29fa7f4551c99fe4a62e25eae2182996290ed2a1c02276ebe",
      "transactionType": "CALL",
      "contractName": null,
      "contractAddress": "0xafaf31c55d224b9601653c925227a1b29a46d1a9",
      "function": "createAndSign(address,uint256,bytes)",
      "arguments": [
        "0x7b79995e5f793A07Bc00c21412e50Ecae098E7f9",
        "0",
        "0x095ea7b3000000000000000000000000c532a74256d3db42d0bf7a0400fefdbad769400800000000000000000000000000000000000000000000000000038d7ea4c68000"
      ],
      "transaction": {
        "from": "0x5992fe461f81c8e0affa95b831e50e9b3854ba0e",
        "to": "0xafaf31c55d224b9601653c925227a1b29a46d1a9",
        "gas": "0x4ced7",
        "value": "0x0",
        "input": "0x391d678b0000000000000000000000007b79995e5f793a07bc00c21412e50ecae098e7f9000000000000000000000000000000000000000000000000000000000000000000000000000000000000000000000000000000000000000000000000000000600000000000000000000000000000000000000000000000000000000000000044095ea7b3000000000000000000000000c532a74256d3db42d0bf7a0400fefdbad769400800000000000000000000000000000000000000000000000000038d7ea4c6800000000000000000000000000000000000000000000000000000000000",
        "nonce": "0x4d9",
        "chainId": "0xaa36a7"
      },
      "additionalContracts": [],
      "isFixedGasLimit": false
    }
  ],
  "receipts": [
    {
      "status": "0x1",
      "cumulativeGasUsed": "0xa04924",
      "logs": [
        {
          "address": "0xafaf31c55d224b9601653c925227a1b29a46d1a9",
          "topics": [
            "0x1705482c697891f95d7007f132e7f3365b88454c115ab0338e69c58d00b387e1",
            "0x0000000000000000000000000000000000000000000000000000000000000000"
          ],
          "data": "0x0000000000000000000000005992fe461f81c8e0affa95b831e50e9b3854ba0e0000000000000000000000000000000000000000000000000000000000000001",
          "blockHash": "0xf49af892fd21b0584db353331af4ef071a59ea1c5f9acee1c7a0fb5486944a0e",
          "blockNumber": "0x643afb",
          "transactionHash": "0xeeec85107bf2c1f29fa7f4551c99fe4a62e25eae2182996290ed2a1c02276ebe",
          "transactionIndex": "0x47",
          "logIndex": "0x96",
          "removed": false
        }
      ],
      "logsBloom": "0x00000000000000000000000000000000000000000000000000000000000000000000000000000000000000000000000040000000000000000000000000000000000000000000040000000000000000000000000000000000000000000000000000004000020000000000000000200800000000000000000000000000000000010000000000000000000000000000000000000400000000000000000000000000000000000000000000000000000000000000000000000000000000000000000000000000000000000000000000000000000000000000000000000000000020000000000000000000000000000000000000000000000000000000000000000000",
      "type": "0x2",
      "transactionHash": "0xeeec85107bf2c1f29fa7f4551c99fe4a62e25eae2182996290ed2a1c02276ebe",
      "transactionIndex": "0x47",
      "blockHash": "0xf49af892fd21b0584db353331af4ef071a59ea1c5f9acee1c7a0fb5486944a0e",
      "blockNumber": "0x643afb",
      "gasUsed": "0x3499a",
      "effectiveGasPrice": "0xaed6ce95",
      "from": "0x5992fe461f81c8e0affa95b831e50e9b3854ba0e",
      "to": "0xafaf31c55d224b9601653c925227a1b29a46d1a9",
      "contractAddress": null
    }
  ],
  "libraries": [],
  "pending": [],
  "returns": {},
  "timestamp": 1724591598,
  "chain": 11155111,
  "commit": "1291406"
}