{
  "transactions": [
    {
      "hash": "0xc5f89550ef9d79bf216bc1e80cbdf19e328f5a08b31aca256f9846d47f206a91",
      "transactionType": "CALL",
      "contractName": null,
      "contractAddress": "0xafaf31c55d224b9601653c925227a1b29a46d1a9",
      "function": "signAndExecute(uint256,bool)",
      "arguments": [
        "5",
        "true"
      ],
      "transaction": {
        "from": "0x5992fe461f81c8e0affa95b831e50e9b3854ba0e",
        "to": "0xafaf31c55d224b9601653c925227a1b29a46d1a9",
        "gas": "0x4fb45",
        "value": "0x0",
        "input": "0x85c1ebff00000000000000000000000000000000000000000000000000000000000000050000000000000000000000000000000000000000000000000000000000000001",
        "nonce": "0x4dd",
        "chainId": "0xaa36a7"
      },
      "additionalContracts": [],
      "isFixedGasLimit": false
    }
  ],
  "receipts": [
    {
      "status": "0x1",
      "cumulativeGasUsed": "0x86e9bc",
      "logs": [
        {
          "address": "0xafaf31c55d224b9601653c925227a1b29a46d1a9",
          "topics": [
            "0x1705482c697891f95d7007f132e7f3365b88454c115ab0338e69c58d00b387e1",
            "0x0000000000000000000000000000000000000000000000000000000000000005"
          ],
          "data": "0x0000000000000000000000005992fe461f81c8e0affa95b831e50e9b3854ba0e0000000000000000000000000000000000000000000000000000000000000002",
          "blockHash": "0x8e2b3fd470ff75f9a6d20fd634405ab9d8674e9d4375f191954bee7ac16c42f4",
          "blockNumber": "0x643b8c",
          "transactionHash": "0xc5f89550ef9d79bf216bc1e80cbdf19e328f5a08b31aca256f9846d47f206a91",
          "transactionIndex": "0x29",
          "logIndex": "0x67",
          "removed": false
        },
        {
          "address": "0x7b79995e5f793a07bc00c21412e50ecae098e7f9",
          "topics": [
            "0xe1fffcc4923d04b559f4d29a8bfc6cda04eb5b0d3c460751c2402c5c5cc9109c",
            "0x000000000000000000000000c532a74256d3db42d0bf7a0400fefdbad7694008"
          ],
          "data": "0x00000000000000000000000000000000000000000000000000000002540be400",
          "blockHash": "0x8e2b3fd470ff75f9a6d20fd634405ab9d8674e9d4375f191954bee7ac16c42f4",
          "blockNumber": "0x643b8c",
          "transactionHash": "0xc5f89550ef9d79bf216bc1e80cbdf19e328f5a08b31aca256f9846d47f206a91",
          "transactionIndex": "0x29",
          "logIndex": "0x68",
          "removed": false
        },
        {
          "address": "0x7b79995e5f793a07bc00c21412e50ecae098e7f9",
          "topics": [
            "0xddf252ad1be2c89b69c2b068fc378daa952ba7f163c4a11628f55a4df523b3ef",
            "0x000000000000000000000000c532a74256d3db42d0bf7a0400fefdbad7694008",
            "0x0000000000000000000000003e24349bc9ed048ed766babfd0d6e552a83118af"
          ],
          "data": "0x00000000000000000000000000000000000000000000000000000002540be400",
          "blockHash": "0x8e2b3fd470ff75f9a6d20fd634405ab9d8674e9d4375f191954bee7ac16c42f4",
          "blockNumber": "0x643b8c",
          "transactionHash": "0xc5f89550ef9d79bf216bc1e80cbdf19e328f5a08b31aca256f9846d47f206a91",
          "transactionIndex": "0x29",
          "logIndex": "0x69",
          "removed": false
        },
        {
          "address": "0xaa8e23fb1079ea71e0a56f48a2aa51851d8433d0",
          "topics": [
            "0xddf252ad1be2c89b69c2b068fc378daa952ba7f163c4a11628f55a4df523b3ef",
            "0x0000000000000000000000003e24349bc9ed048ed766babfd0d6e552a83118af",
            "0x000000000000000000000000afaf31c55d224b9601653c925227a1b29a46d1a9"
          ],
          "data": "0x0000000000000000000000000000000000000000000000000000000000000046",
          "blockHash": "0x8e2b3fd470ff75f9a6d20fd634405ab9d8674e9d4375f191954bee7ac16c42f4",
          "blockNumber": "0x643b8c",
          "transactionHash": "0xc5f89550ef9d79bf216bc1e80cbdf19e328f5a08b31aca256f9846d47f206a91",
          "transactionIndex": "0x29",
          "logIndex": "0x6a",
          "removed": false
        },
        {
          "address": "0x3e24349bc9ed048ed766babfd0d6e552a83118af",
          "topics": [
            "0x1c411e9a96e071241c2f21f7726b17ae89e3cab4c78be50e062b03a9fffbbad1"
          ],
          "data": "0x000000000000000000000000000000000000000000000000174e1d67d0cb942700000000000000000000000000000000000000000000000000000002c4bda0c3",
          "blockHash": "0x8e2b3fd470ff75f9a6d20fd634405ab9d8674e9d4375f191954bee7ac16c42f4",
          "blockNumber": "0x643b8c",
          "transactionHash": "0xc5f89550ef9d79bf216bc1e80cbdf19e328f5a08b31aca256f9846d47f206a91",
          "transactionIndex": "0x29",
          "logIndex": "0x6b",
          "removed": false
        },
        {
          "address": "0x3e24349bc9ed048ed766babfd0d6e552a83118af",
          "topics": [
            "0xd78ad95fa46c994b6551d0da85fc275fe613ce37657fb8d5e3d130840159d822",
            "0x000000000000000000000000c532a74256d3db42d0bf7a0400fefdbad7694008",
            "0x000000000000000000000000afaf31c55d224b9601653c925227a1b29a46d1a9"
          ],
          "data": "0x00000000000000000000000000000000000000000000000000000002540be400000000000000000000000000000000000000000000000000000000000000000000000000000000000000000000000000000000000000000000000000000000000000000000000000000000000000000000000000000000000000000000000046",
          "blockHash": "0x8e2b3fd470ff75f9a6d20fd634405ab9d8674e9d4375f191954bee7ac16c42f4",
          "blockNumber": "0x643b8c",
          "transactionHash": "0xc5f89550ef9d79bf216bc1e80cbdf19e328f5a08b31aca256f9846d47f206a91",
          "transactionIndex": "0x29",
          "logIndex": "0x6c",
          "removed": false
        },
        {
          "address": "0xafaf31c55d224b9601653c925227a1b29a46d1a9",
          "topics": [
            "0x5ee51e76cad23bc6a0e665e0ed4388cf033d3bc1bba5c050849550c13001598d",
            "0x0000000000000000000000000000000000000000000000000000000000000005"
          ],
          "data": "0x0000000000000000000000005992fe461f81c8e0affa95b831e50e9b3854ba0e",
          "blockHash": "0x8e2b3fd470ff75f9a6d20fd634405ab9d8674e9d4375f191954bee7ac16c42f4",
          "blockNumber": "0x643b8c",
          "transactionHash": "0xc5f89550ef9d79bf216bc1e80cbdf19e328f5a08b31aca256f9846d47f206a91",
          "transactionIndex": "0x29",
          "logIndex": "0x6d",
          "removed": false
        }
      ],
      "logsBloom": "0x00208000000000008000000080000000000000010000000000000004000800000000000000000000000000000000002040000000000000000000000000000000000010000000040000000008001000200000000000000000000000008000080004004000000000000000000000240000000000000000024000000010000000010000000000000000004000000000001000000c01000000080000004000000000000000000000000000000000000000080000000000000004000000000000000000000102000000000000000000000000000000000000001000000000000000080000000080000000400000000000000000000000000000400000040000000000",
      "type": "0x2",
      "transactionHash": "0xc5f89550ef9d79bf216bc1e80cbdf19e328f5a08b31aca256f9846d47f206a91",
      "transactionIndex": "0x29",
      "blockHash": "0x8e2b3fd470ff75f9a6d20fd634405ab9d8674e9d4375f191954bee7ac16c42f4",
      "blockNumber": "0x643b8c",
      "gasUsed": "0x367fb",
      "effectiveGasPrice": "0xfa9b01bf",
      "from": "0x5992fe461f81c8e0affa95b831e50e9b3854ba0e",
      "to": "0xafaf31c55d224b9601653c925227a1b29a46d1a9",
      "contractAddress": null
    }
  ],
  "libraries": [],
  "pending": [],
  "returns": {},
  "timestamp": 1724593514,
  "chain": 11155111,
  "commit": "1291406"
}