{
  "transactions": [
    {
      "hash": "0x999d32b5f7cb9855a728702224130de5df0cf8d7db424b28d1200a5b05ee6b45",
      "transactionType": "CALL",
      "contractName": null,
      "contractAddress": "0xafaf31c55d224b9601653c925227a1b29a46d1a9",
      "function": "executeOp(uint256)",
      "arguments": [
        "0"
      ],
      "transaction": {
        "from": "0xf315b9006c20913d6d8498bdf657e778d4ddf2c4",
        "to": "0xafaf31c55d224b9601653c925227a1b29a46d1a9",
        "gas": "0x22a92",
        "value": "0x0",
        "input": "0x9bab57790000000000000000000000000000000000000000000000000000000000000000",
        "nonce": "0xbc",
        "chainId": "0xaa36a7"
      },
      "additionalContracts": [],
      "isFixedGasLimit": false
    }
  ],
  "receipts": [
    {
      "status": "0x1",
      "cumulativeGasUsed": "0x8a8831",
      "logs": [
        {
          "address": "0x7b79995e5f793a07bc00c21412e50ecae098e7f9",
          "topics": [
            "0x8c5be1e5ebec7d5bd14f71427d1e84f3dd0314c0f7b2291e5b200ac8c7c3b925",
            "0x000000000000000000000000afaf31c55d224b9601653c925227a1b29a46d1a9",
            "0x000000000000000000000000c532a74256d3db42d0bf7a0400fefdbad7694008"
          ],
          "data": "0x00000000000000000000000000000000000000000000000000038d7ea4c68000",
          "blockHash": "0x5bc63eb217392c2142bc8aef762cfbbd3ee72a29b241225cb8b29b69f2b0e81e",
          "blockNumber": "0x643b09",
          "transactionHash": "0x999d32b5f7cb9855a728702224130de5df0cf8d7db424b28d1200a5b05ee6b45",
          "transactionIndex": "0x26",
          "logIndex": "0x9e",
          "removed": false
        },
        {
          "address": "0xafaf31c55d224b9601653c925227a1b29a46d1a9",
          "topics": [
            "0x5ee51e76cad23bc6a0e665e0ed4388cf033d3bc1bba5c050849550c13001598d",
            "0x0000000000000000000000000000000000000000000000000000000000000000"
          ],
          "data": "0x000000000000000000000000f315b9006c20913d6d8498bdf657e778d4ddf2c4",
          "blockHash": "0x5bc63eb217392c2142bc8aef762cfbbd3ee72a29b241225cb8b29b69f2b0e81e",
          "blockNumber": "0x643b09",
          "transactionHash": "0x999d32b5f7cb9855a728702224130de5df0cf8d7db424b28d1200a5b05ee6b45",
          "transactionIndex": "0x26",
          "logIndex": "0x9f",
          "removed": false
        }
      ],
      "logsBloom": "0x00000000000000000000000000000000000000000000000000000004000800000000000000000000000000000000000000000000000000000000000000200000000000000000000000000000001000000000000000000000000000000000000000000000020000000000000000240800000000000000024000000000000000010000000000000000000000000000000000000400000000000000000000000000020000000000000000000000000000080000000000000004000000000000000000000102000000000000000000000000000000000000000000000000000020080010000000000000400000000000000000000000000000000000000000000000",
      "type": "0x2",
      "transactionHash": "0x999d32b5f7cb9855a728702224130de5df0cf8d7db424b28d1200a5b05ee6b45",
      "transactionIndex": "0x26",
      "blockHash": "0x5bc63eb217392c2142bc8aef762cfbbd3ee72a29b241225cb8b29b69f2b0e81e",
      "blockNumber": "0x643b09",
      "gasUsed": "0x17b32",
      "effectiveGasPrice": "0xd39572e4",
      "from": "0xf315b9006c20913d6d8498bdf657e778d4ddf2c4",
      "to": "0xafaf31c55d224b9601653c925227a1b29a46d1a9",
      "contractAddress": null
    }
  ],
  "libraries": [],
  "pending": [],
  "returns": {},
  "timestamp": 1724591802,
  "chain": 11155111,
  "commit": "1291406"
}