{
  "transactions": [
    {
      "hash": "0xa6cc7f914bb9eb4708663c4c28c27f03f7a9d8c2e8297b25ed2e6a7a11003558",
      "transactionType": "CALL",
      "contractName": null,
      "contractAddress": "0xafaf31c55d224b9601653c925227a1b29a46d1a9",
      "function": "createAndSign(address,uint256,bytes)",
      "arguments": [
        "0xC532a74256D3Db42D0Bf7a0400fEFDbad7694008",
        "10000000000",
        "0x7ff36ab500000000000000000000000000000000000000000000000000000000000000000000000000000000000000000000000000000000000000000000000000000080000000000000000000000000afaf31c55d224b9601653c925227a1b29a46d1a900000000000000000000000000000000000000000000000000000000cd9669f800000000000000000000000000000000000000000000000000000000000000020000000000000000000000007b79995e5f793a07bc00c21412e50ecae098e7f9000000000000000000000000aa8e23fb1079ea71e0a56f48a2aa51851d8433d0"
      ],
      "transaction": {
        "from": "0xf315b9006c20913d6d8498bdf657e778d4ddf2c4",
        "to": "0xafaf31c55d224b9601653c925227a1b29a46d1a9",
        "gas": "0x698bd",
        "value": "0x0",
        "input": "0x391d678b000000000000000000000000c532a74256d3db42d0bf7a0400fefdbad769400800000000000000000000000000000000000000000000000000000002540be400000000000000000000000000000000000000000000000000000000000000006000000000000000000000000000000000000000000000000000000000000000e47ff36ab500000000000000000000000000000000000000000000000000000000000000000000000000000000000000000000000000000000000000000000000000000080000000000000000000000000afaf31c55d224b9601653c925227a1b29a46d1a900000000000000000000000000000000000000000000000000000000cd9669f800000000000000000000000000000000000000000000000000000000000000020000000000000000000000007b79995e5f793a07bc00c21412e50ecae098e7f9000000000000000000000000aa8e23fb1079ea71e0a56f48a2aa51851d8433d000000000000000000000000000000000000000000000000000000000",
        "nonce": "0xbf",
        "chainId": "0xaa36a7"
      },
      "additionalContracts": [],
      "isFixedGasLimit": false
    }
  ],
  "receipts": [
    {
      "status": "0x1",
      "cumulativeGasUsed": "0x81793f",
      "logs": [
        {
          "address": "0xafaf31c55d224b9601653c925227a1b29a46d1a9",
          "topics": [
            "0x1705482c697891f95d7007f132e7f3365b88454c115ab0338e69c58d00b387e1",
            "0x0000000000000000000000000000000000000000000000000000000000000005"
          ],
          "data": "0x000000000000000000000000f315b9006c20913d6d8498bdf657e778d4ddf2c40000000000000000000000000000000000000000000000000000000000000001",
          "blockHash": "0xc592b0af71075a5e35d4516e2f630264300d1cc952c48f6fc720160f735cd159",
          "blockNumber": "0x643b87",
          "transactionHash": "0xa6cc7f914bb9eb4708663c4c28c27f03f7a9d8c2e8297b25ed2e6a7a11003558",
          "transactionIndex": "0x36",
          "logIndex": "0x48",
          "removed": false
        }
      ],
      "logsBloom": "0x00000000000000000000000000000000000000000000000000000000000000000000000000000000000000000000000040000000000000000000000000000000000010000000040000000000000000000000000000000000000000000000000000004000000000000000000000200000000000000000000000000000000000010000000000000000000000000000001000000c00000000000000000000000000000000000000000000000000000000000000000000000000000000000000000000000000000000000000000000000000000000000000000000000000000000000000000000000000000000000000000000000000000000000000000000000000",
      "type": "0x2",
      "transactionHash": "0xa6cc7f914bb9eb4708663c4c28c27f03f7a9d8c2e8297b25ed2e6a7a11003558",
      "transactionIndex": "0x36",
      "blockHash": "0xc592b0af71075a5e35d4516e2f630264300d1cc952c48f6fc720160f735cd159",
      "blockNumber": "0x643b87",
      "gasUsed": "0x4c69f",
      "effectiveGasPrice": "0xfb503056",
      "from": "0xf315b9006c20913d6d8498bdf657e778d4ddf2c4",
      "to": "0xafaf31c55d224b9601653c925227a1b29a46d1a9",
      "contractAddress": null
    }
  ],
  "libraries": [],
  "pending": [],
  "returns": {},
  "timestamp": 1724593447,
  "chain": 11155111,
  "commit": "1291406"
}