{
  "transactions": [
    {
      "hash": "0x4232f41fe4835c0795d90eaca69cb961a2a4cd7691285ef35f60f2703481f6a6",
      "transactionType": "CALL",
      "contractName": null,
      "contractAddress": "0xafaf31c55d224b9601653c925227a1b29a46d1a9",
      "function": "createAndSign(address,uint256,bytes)",
      "arguments": [
        "0xC532a74256D3Db42D0Bf7a0400fEFDbad7694008",
        "0",
        "0x38ed173900000000000000000000000000000000000000000000000000038d7ea4c68000000000000000000000000000000000000000000000000000000000000000000000000000000000000000000000000000000000000000000000000000000000a0000000000000000000000000afaf31c55d224b9601653c925227a1b29a46d1a900000000000000000000000000000000000000000000000000000000cd965f7800000000000000000000000000000000000000000000000000000000000000020000000000000000000000007b79995e5f793a07bc00c21412e50ecae098e7f9000000000000000000000000aa8e23fb1079ea71e0a56f48a2aa51851d8433d0"
      ],
      "transaction": {
        "from": "0xf315b9006c20913d6d8498bdf657e778d4ddf2c4",
        "to": "0xafaf31c55d224b9601653c925227a1b29a46d1a9",
        "gas": "0x6a605",
        "value": "0x0",
        "input": "0x391d678b000000000000000000000000c532a74256d3db42d0bf7a0400fefdbad769400800000000000000000000000000000000000000000000000000000000000000000000000000000000000000000000000000000000000000000000000000000060000000000000000000000000000000000000000000000000000000000000010438ed173900000000000000000000000000000000000000000000000000038d7ea4c68000000000000000000000000000000000000000000000000000000000000000000000000000000000000000000000000000000000000000000000000000000000a0000000000000000000000000afaf31c55d224b9601653c925227a1b29a46d1a900000000000000000000000000000000000000000000000000000000cd965f7800000000000000000000000000000000000000000000000000000000000000020000000000000000000000007b79995e5f793a07bc00c21412e50ecae098e7f9000000000000000000000000aa8e23fb1079ea71e0a56f48a2aa51851d8433d000000000000000000000000000000000000000000000000000000000",
        "nonce": "0xbd",
        "chainId": "0xaa36a7"
      },
      "additionalContracts": [],
      "isFixedGasLimit": false
    }
  ],
  "receipts": [
    {
      "status": "0x1",
      "cumulativeGasUsed": "0x86b793",
      "logs": [
        {
          "address": "0xafaf31c55d224b9601653c925227a1b29a46d1a9",
          "topics": [
            "0x1705482c697891f95d7007f132e7f3365b88454c115ab0338e69c58d00b387e1",
            "0x0000000000000000000000000000000000000000000000000000000000000001"
          ],
          "data": "0x000000000000000000000000f315b9006c20913d6d8498bdf657e778d4ddf2c40000000000000000000000000000000000000000000000000000000000000001",
          "blockHash": "0xb9db094db8cf0f980c8a197a82160bbce5c2dcea49a5280fed92a1ca775ea720",
          "blockNumber": "0x643b20",
          "transactionHash": "0x4232f41fe4835c0795d90eaca69cb961a2a4cd7691285ef35f60f2703481f6a6",
          "transactionIndex": "0x27",
          "logIndex": "0x73",
          "removed": false
        }
      ],
      "logsBloom": "0x00000000000000000000000000000000000000000000000000000000000000000000000000000000000000000000000040000000000000000000000000040000000000000000040000000000000000000000000000040000000000000000000000004000000000000000000000200000000000000000000000000000000000010000000000000000000000000000000000000400000000000000000000000000000000000000000000000000000000000000000000000000000000000000000000000000000000000000000000000000000000000000000000000000000040000000000000000000000000000000000000000000000000000000000000000000",
      "type": "0x2",
      "transactionHash": "0x4232f41fe4835c0795d90eaca69cb961a2a4cd7691285ef35f60f2703481f6a6",
      "transactionIndex": "0x27",
      "blockHash": "0xb9db094db8cf0f980c8a197a82160bbce5c2dcea49a5280fed92a1ca775ea720",
      "blockNumber": "0x643b20",
      "gasUsed": "0x4d03c",
      "effectiveGasPrice": "0xaddc766d",
      "from": "0xf315b9006c20913d6d8498bdf657e778d4ddf2c4",
      "to": "0xafaf31c55d224b9601653c925227a1b29a46d1a9",
      "contractAddress": null
    }
  ],
  "libraries": [],
  "pending": [],
  "returns": {},
  "timestamp": 1724592088,
  "chain": 11155111,
  "commit": "1291406"
}