{
  "transactions": [
    {
      "hash": "0x820dbf878976ea6ba253c2c4177f03e9ac25671b4cea6d1a136a517d7966fc07",
      "transactionType": "CALL",
      "contractName": null,
      "contractAddress": "0xafaf31c55d224b9601653c925227a1b29a46d1a9",
      "function": "createAndSign(address,uint256,bytes)",
      "arguments": [
        "0xC532a74256D3Db42D0Bf7a0400fEFDbad7694008",
        "10000000000",
        "0x38ed173900000000000000000000000000000000000000000000000000000002540be400000000000000000000000000000000000000000000000000000000000000000000000000000000000000000000000000000000000000000000000000000000a0000000000000000000000000afaf31c55d224b9601653c925227a1b29a46d1a900000000000000000000000000000000000000000000000000000000cd96681800000000000000000000000000000000000000000000000000000000000000020000000000000000000000007b79995e5f793a07bc00c21412e50ecae098e7f9000000000000000000000000aa8e23fb1079ea71e0a56f48a2aa51851d8433d0"
      ],
      "transaction": {
        "from": "0x5992fe461f81c8e0affa95b831e50e9b3854ba0e",
        "to": "0xafaf31c55d224b9601653c925227a1b29a46d1a9",
        "gas": "0x70418",
        "value": "0x0",
        "input": "0x391d678b000000000000000000000000c532a74256d3db42d0bf7a0400fefdbad769400800000000000000000000000000000000000000000000000000000002540be4000000000000000000000000000000000000000000000000000000000000000060000000000000000000000000000000000000000000000000000000000000010438ed173900000000000000000000000000000000000000000000000000000002540be400000000000000000000000000000000000000000000000000000000000000000000000000000000000000000000000000000000000000000000000000000000a0000000000000000000000000afaf31c55d224b9601653c925227a1b29a46d1a900000000000000000000000000000000000000000000000000000000cd96681800000000000000000000000000000000000000000000000000000000000000020000000000000000000000007b79995e5f793a07bc00c21412e50ecae098e7f9000000000000000000000000aa8e23fb1079ea71e0a56f48a2aa51851d8433d000000000000000000000000000000000000000000000000000000000",
        "nonce": "0x4dc",
        "chainId": "0xaa36a7"
      },
      "additionalContracts": [],
      "isFixedGasLimit": false
    }
  ],
  "receipts": [
    {
      "status": "0x1",
      "cumulativeGasUsed": "0xaecfb8",
      "logs": [
        {
          "address": "0xafaf31c55d224b9601653c925227a1b29a46d1a9",
          "topics": [
            "0x1705482c697891f95d7007f132e7f3365b88454c115ab0338e69c58d00b387e1",
            "0x0000000000000000000000000000000000000000000000000000000000000004"
          ],
          "data": "0x0000000000000000000000005992fe461f81c8e0affa95b831e50e9b3854ba0e0000000000000000000000000000000000000000000000000000000000000001",
          "blockHash": "0xb8a4f8a778424aaaac288e2cc30311464c9ea184bd23c61b072b43c997847591",
          "blockNumber": "0x643b77",
          "transactionHash": "0x820dbf878976ea6ba253c2c4177f03e9ac25671b4cea6d1a136a517d7966fc07",
          "transactionIndex": "0x4b",
          "logIndex": "0x7d",
          "removed": false
        }
      ],
      "logsBloom": "0x00000000000000000000000000000000000000000000000000000000000000000000000000000000000000000000000040000000000000000000000000000000000000000000040000000000000000000000000000000000000000000000000008004000000000000000000000200000000000000000000000000000000000010000000000000000000000000000000000000400000000000000000000000000000000000000000000000000000000000000000000000000002000000000000000000000000000000000000000000000000000008000000000000000000000000000000000000000000000000000000000000000000000000000000000000000",
      "type": "0x2",
      "transactionHash": "0x820dbf878976ea6ba253c2c4177f03e9ac25671b4cea6d1a136a517d7966fc07",
      "transactionIndex": "0x4b",
      "blockHash": "0xb8a4f8a778424aaaac288e2cc30311464c9ea184bd23c61b072b43c997847591",
      "blockNumber": "0x643b77",
      "gasUsed": "0x51458",
      "effectiveGasPrice": "0xf639414e",
      "from": "0x5992fe461f81c8e0affa95b831e50e9b3854ba0e",
      "to": "0xafaf31c55d224b9601653c925227a1b29a46d1a9",
      "contractAddress": null
    }
  ],
  "libraries": [],
  "pending": [],
  "returns": {},
  "timestamp": 1724593202,
  "chain": 11155111,
  "commit": "1291406"
}